{
  "transactions": [
    {
      "hash": "0x0afccfa9fc6290e0f3bce71ef88f864072f47193cb3120392504d646e9e008d8",
      "transactionType": "CALL",
      "contractName": null,
      "contractAddress": "0x779877a7b0d9e8603169ddbd7836e478b4624789",
      "function": "transferAndCall(address,uint256,bytes)",
      "arguments": [
        "0x9DdfaCa8183c41ad55329BdeeD9F6A8d53168B1B",
        "3000000000000000000",
        "0x70d2b1933439f98df97e1b20282b912c7883e4767099de00759940dec1ee2091"
      ],
      "transaction": {
        "from": "0xdff71c56d819cd39cebdb41db2f5f7ec1fd1b153",
        "to": "0x779877a7b0d9e8603169ddbd7836e478b4624789",
        "gas": "0x1603d",
        "value": "0x0",
        "input": "0x4000aea00000000000000000000000009ddfaca8183c41ad55329bdeed9f6a8d53168b1b00000000000000000000000000000000000000000000000029a2241af62c00000000000000000000000000000000000000000000000000000000000000000060000000000000000000000000000000000000000000000000000000000000002070d2b1933439f98df97e1b20282b912c7883e4767099de00759940dec1ee2091",
        "nonce": "0xd",
        "chainId": "0xaa36a7"
      },
      "additionalContracts": [],
      "isFixedGasLimit": false
    }
  ],
  "receipts": [
    {
      "status": "0x1",
      "cumulativeGasUsed": "0x25b3590",
      "logs": [
        {
          "address": "0x779877a7b0d9e8603169ddbd7836e478b4624789",
          "topics": [
            "0xddf252ad1be2c89b69c2b068fc378daa952ba7f163c4a11628f55a4df523b3ef",
            "0x000000000000000000000000dff71c56d819cd39cebdb41db2f5f7ec1fd1b153",
            "0x0000000000000000000000009ddfaca8183c41ad55329bdeed9f6a8d53168b1b"
          ],
          "data": "0x00000000000000000000000000000000000000000000000029a2241af62c0000",
          "blockHash": "0x10aef0710bb366ae81406eb71fc3c999f61992ceb5b1b7b25db43349023dc502",
          "blockNumber": "0x98d24a",
          "blockTimestamp": "0x6962448c",
          "transactionHash": "0x0afccfa9fc6290e0f3bce71ef88f864072f47193cb3120392504d646e9e008d8",
          "transactionIndex": "0x80",
          "logIndex": "0x32c",
          "removed": false
        },
        {
          "address": "0x779877a7b0d9e8603169ddbd7836e478b4624789",
          "topics": [
            "0xe19260aff97b920c7df27010903aeb9c8d2be5d310a2c67824cf3f15396e4c16",
            "0x000000000000000000000000dff71c56d819cd39cebdb41db2f5f7ec1fd1b153",
            "0x0000000000000000000000009ddfaca8183c41ad55329bdeed9f6a8d53168b1b"
          ],
          "data": "0x00000000000000000000000000000000000000000000000029a2241af62c00000000000000000000000000000000000000000000000000000000000000000040000000000000000000000000000000000000000000000000000000000000002070d2b1933439f98df97e1b20282b912c7883e4767099de00759940dec1ee2091",
          "blockHash": "0x10aef0710bb366ae81406eb71fc3c999f61992ceb5b1b7b25db43349023dc502",
          "blockNumber": "0x98d24a",
          "blockTimestamp": "0x6962448c",
          "transactionHash": "0x0afccfa9fc6290e0f3bce71ef88f864072f47193cb3120392504d646e9e008d8",
          "transactionIndex": "0x80",
          "logIndex": "0x32d",
          "removed": false
        },
        {
          "address": "0x9ddfaca8183c41ad55329bdeed9f6a8d53168b1b",
          "topics": [
            "0x1ced9348ff549fceab2ac57cd3a9de38edaaab274b725ee82c23e8fc8c4eec7a",
            "0x70d2b1933439f98df97e1b20282b912c7883e4767099de00759940dec1ee2091"
          ],
          "data": "0x0000000000000000000000000000000000000000000000004563918244f400000000000000000000000000000000000000000000000000006f05b59d3b200000",
          "blockHash": "0x10aef0710bb366ae81406eb71fc3c999f61992ceb5b1b7b25db43349023dc502",
          "blockNumber": "0x98d24a",
          "blockTimestamp": "0x6962448c",
          "transactionHash": "0x0afccfa9fc6290e0f3bce71ef88f864072f47193cb3120392504d646e9e008d8",
          "transactionIndex": "0x80",
          "logIndex": "0x32e",
          "removed": false
        }
      ],
      "logsBloom": "0x00000004000000000000000000000000000000000020000000000100020000000000000000000000000000000000000000000000000000000000000000000000000000000000000000000008000000000000000000000000000020000020000008000000000000000000000000000000000000000000000000000010000040000000000000000000000000010000800000000020000000000000000010000000000000000000000000000000018000000000000000000000000004000020000000000002000000000000000000000000000000000000000100000000000000080010000000400000800000000000000000000000000000000000000000000000",
      "type": "0x2",
      "transactionHash": "0x0afccfa9fc6290e0f3bce71ef88f864072f47193cb3120392504d646e9e008d8",
      "transactionIndex": "0x80",
      "blockHash": "0x10aef0710bb366ae81406eb71fc3c999f61992ceb5b1b7b25db43349023dc502",
      "blockNumber": "0x98d24a",
      "gasUsed": "0xf0d9",
      "effectiveGasPrice": "0x9ee7f",
      "from": "0xdff71c56d819cd39cebdb41db2f5f7ec1fd1b153",
      "to": "0x779877a7b0d9e8603169ddbd7836e478b4624789",
      "contractAddress": null
    }
  ],
  "libraries": [],
  "pending": [],
  "returns": {},
  "timestamp": 1768047757630,
  "chain": 11155111,
  "commit": null
}